{
  "contractName": "BreadShop",
  "abi": [
    {
      "inputs": [
        {
          "internalType": "uint256",
          "name": "_price",
          "type": "uint256"
        }
      ],
      "stateMutability": "nonpayable",
      "type": "constructor"
    },
    {
      "inputs": [
        {
          "internalType": "address",
          "name": "",
          "type": "address"
        }
      ],
      "name": "breads",
      "outputs": [
        {
          "internalType": "uint256",
          "name": "",
          "type": "uint256"
        }
      ],
      "stateMutability": "view",
      "type": "function",
      "constant": true
    },
    {
      "inputs": [],
      "name": "price",
      "outputs": [
        {
          "internalType": "uint256",
          "name": "",
          "type": "uint256"
        }
      ],
      "stateMutability": "view",
      "type": "function",
      "constant": true
    },
    {
      "inputs": [
        {
          "internalType": "uint256",
          "name": "amount",
          "type": "uint256"
        }
      ],
      "name": "buyBread",
      "outputs": [],
      "stateMutability": "payable",
      "type": "function",
      "payable": true
    },
    {
      "inputs": [
        {
          "internalType": "uint256",
          "name": "amount",
          "type": "uint256"
        }
      ],
      "name": "sellBread",
      "outputs": [],
      "stateMutability": "payable",
      "type": "function",
      "payable": true
    },
    {
      "inputs": [],
      "name": "getBread",
      "outputs": [
        {
          "internalType": "uint256",
          "name": "",
          "type": "uint256"
        }
      ],
      "stateMutability": "view",
      "type": "function",
      "constant": true
    },
    {
      "inputs": [
        {
          "internalType": "uint256",
          "name": "_price",
          "type": "uint256"
        }
      ],
      "name": "setPrice",
      "outputs": [],
      "stateMutability": "nonpayable",
      "type": "function"
    },
    {
      "inputs": [],
      "name": "getPrice",
      "outputs": [
        {
          "internalType": "uint256[2]",
          "name": "",
          "type": "uint256[2]"
        }
      ],
      "stateMutability": "view",
      "type": "function",
      "constant": true
    },
    {
      "inputs": [],
      "name": "getSender",
      "outputs": [
        {
          "internalType": "address",
          "name": "",
          "type": "address"
        }
      ],
      "stateMutability": "view",
      "type": "function",
      "constant": true
    },
    {
      "inputs": [],
      "name": "isOwner",
      "outputs": [
        {
          "internalType": "bool",
          "name": "",
          "type": "bool"
        }
      ],
      "stateMutability": "view",
      "type": "function",
      "constant": true
    }
  ],
  "bytecode": "0x608060405234801561001057600080fd5b506040516109c23803806109c2833981810160405281019061003291906100bb565b33600160006101000a81548173ffffffffffffffffffffffffffffffffffffffff021916908373ffffffffffffffffffffffffffffffffffffffff16021790555080600281905550506100e8565b600080fd5b6000819050919050565b61009881610085565b81146100a357600080fd5b50565b6000815190506100b58161008f565b92915050565b6000602082840312156100d1576100d0610080565b5b60006100df848285016100a6565b91505092915050565b6108cb806100f76000396000f3fe6080604052600436106100865760003560e01c806391b7f5ed1161005957806391b7f5ed1461012857806398d5fdca14610151578063a035b1fe1461017c578063b8c9a795146101a7578063e081aaa9146101c357610086565b80632fad08dc1461008b5780635e01eb5a146100b657806376165261146100e15780638f32d59b146100fd575b600080fd5b34801561009757600080fd5b506100a0610200565b6040516100ad9190610532565b60405180910390f35b3480156100c257600080fd5b506100cb610246565b6040516100d8919061058e565b60405180910390f35b6100fb60048036038101906100f691906105da565b61024e565b005b34801561010957600080fd5b5061011261035d565b60405161011f9190610622565b60405180910390f35b34801561013457600080fd5b5061014f600480360381019061014a91906105da565b6103c5565b005b34801561015d57600080fd5b50610166610429565b60405161017391906106e8565b60405180910390f35b34801561018857600080fd5b50610191610467565b60405161019e9190610532565b60405180910390f35b6101c160048036038101906101bc91906105da565b61046d565b005b3480156101cf57600080fd5b506101ea60048036038101906101e5919061072f565b6104df565b6040516101f79190610532565b60405180910390f35b60008060003373ffffffffffffffffffffffffffffffffffffffff1673ffffffffffffffffffffffffffffffffffffffff16815260200190815260200160002054905090565b600033905090565b6000803373ffffffffffffffffffffffffffffffffffffffff1673ffffffffffffffffffffffffffffffffffffffff1681526020019081526020016000205481111561029957600080fd5b806000803373ffffffffffffffffffffffffffffffffffffffff1673ffffffffffffffffffffffffffffffffffffffff16815260200190815260200160002060008282546102e7919061078b565b925050819055503373ffffffffffffffffffffffffffffffffffffffff166108fc600a600960025461031991906107bf565b6103239190610830565b8361032e91906107bf565b9081150290604051600060405180830381858888f19350505050158015610359573d6000803e3d6000fd5b5050565b60003373ffffffffffffffffffffffffffffffffffffffff16600160009054906101000a900473ffffffffffffffffffffffffffffffffffffffff1673ffffffffffffffffffffffffffffffffffffffff16036103bd57600190506103c2565b600090505b90565b3373ffffffffffffffffffffffffffffffffffffffff16600160009054906101000a900473ffffffffffffffffffffffffffffffffffffffff1673ffffffffffffffffffffffffffffffffffffffff161461041f57600080fd5b8060028190555050565b6104316104f7565b60405180604001604052806002548152602001600a600960025461045591906107bf565b61045f9190610830565b815250905090565b60025481565b8060025461047b91906107bf565b34101561048757600080fd5b806000803373ffffffffffffffffffffffffffffffffffffffff1673ffffffffffffffffffffffffffffffffffffffff16815260200190815260200160002060008282546104d59190610861565b9250508190555050565b60006020528060005260406000206000915090505481565b6040518060400160405280600290602082028036833780820191505090505090565b6000819050919050565b61052c81610519565b82525050565b60006020820190506105476000830184610523565b92915050565b600073ffffffffffffffffffffffffffffffffffffffff82169050919050565b60006105788261054d565b9050919050565b6105888161056d565b82525050565b60006020820190506105a3600083018461057f565b92915050565b600080fd5b6105b781610519565b81146105c257600080fd5b50565b6000813590506105d4816105ae565b92915050565b6000602082840312156105f0576105ef6105a9565b5b60006105fe848285016105c5565b91505092915050565b60008115159050919050565b61061c81610607565b82525050565b60006020820190506106376000830184610613565b92915050565b600060029050919050565b600081905092915050565b6000819050919050565b61066681610519565b82525050565b6000610678838361065d565b60208301905092915050565b6000602082019050919050565b61069a8161063d565b6106a48184610648565b92506106af82610653565b8060005b838110156106e05781516106c7878261066c565b96506106d283610684565b9250506001810190506106b3565b505050505050565b60006040820190506106fd6000830184610691565b92915050565b61070c8161056d565b811461071757600080fd5b50565b60008135905061072981610703565b92915050565b600060208284031215610745576107446105a9565b5b60006107538482850161071a565b91505092915050565b7f4e487b7100000000000000000000000000000000000000000000000000000000600052601160045260246000fd5b600061079682610519565b91506107a183610519565b92508282039050818111156107b9576107b861075c565b5b92915050565b60006107ca82610519565b91506107d583610519565b92508282026107e381610519565b915082820484148315176107fa576107f961075c565b5b5092915050565b7f4e487b7100000000000000000000000000000000000000000000000000000000600052601260045260246000fd5b600061083b82610519565b915061084683610519565b92508261085657610855610801565b5b828204905092915050565b600061086c82610519565b915061087783610519565b925082820190508082111561088f5761088e61075c565b5b9291505056fea2646970667358221220e4ad5d047049f8e4e7fe8c540c3ed10cadd4af8571edf48791deab5273d24bd564736f6c63430008130033",
  "immutableReferences": {},
  "source": "// SPDX-License-Identifier: MIT\r\npragma solidity ^0.8.19;\r\n\r\n//   ,    \r\n//       Ether \r\n//      \r\n// -      \r\n\r\ncontract BreadShop {\r\n  mapping(address => uint) public breads;\r\n  address private owner;\r\n  uint public price;\r\n\r\n  constructor(uint _price) {\r\n    owner = msg.sender;\r\n    price = _price;\r\n  }\r\n\r\n  function buyBread(uint amount) public payable {\r\n    require(msg.value >= price * amount);\r\n    breads[msg.sender] += amount;\r\n  }\r\n\r\n  function sellBread(uint amount) public payable {\r\n    require(amount <= breads[msg.sender]);\r\n    breads[msg.sender] -= amount;\r\n    payable(msg.sender).transfer(amount * uint((price * 9) / 10));\r\n  }\r\n\r\n  function getBread() public view returns (uint) {\r\n    return breads[msg.sender];\r\n  }\r\n\r\n  function setPrice(uint _price) public {\r\n    require(owner == msg.sender);\r\n    price = _price;\r\n  }\r\n\r\n  function getPrice() public view returns (uint[2] memory) {\r\n    return [price, uint((price * 9) / 10)];\r\n  }\r\n\r\n  function getSender() public view returns (address) {\r\n    return msg.sender;\r\n  }\r\n\r\n  function isOwner() external view returns (bool) {\r\n    if (owner == msg.sender) return true;\r\n    return false;\r\n  }\r\n}\r\n",
  "sourcePath": "C:\\Users\\kga-00\\Documents\\BlockChainReady\\NN.034\\add\\back\\contracts\\BreadShop.sol",
  "compiler": {
    "name": "solc",
    "version": "0.8.19+commit.7dd6d404.Emscripten.clang"
  },
  "schemaVersion": "3.4.13",
  "updatedAt": "2023-03-08T06:24:17.807Z",
  "networkType": "ethereum",
  "devdoc": {
    "kind": "dev",
    "methods": {},
    "version": 1
  },
  "userdoc": {
    "kind": "user",
    "methods": {},
    "version": 1
  }
}