{
  "contractName": "BreadShop",
  "abi": [
    {
      "inputs": [
        {
          "internalType": "address",
          "name": "",
          "type": "address"
        }
      ],
      "name": "breads",
      "outputs": [
        {
          "internalType": "uint256",
          "name": "",
          "type": "uint256"
        }
      ],
      "stateMutability": "view",
      "type": "function",
      "constant": true
    },
    {
      "inputs": [],
      "name": "buyBread",
      "outputs": [],
      "stateMutability": "nonpayable",
      "type": "function"
    },
    {
      "inputs": [],
      "name": "sellBread",
      "outputs": [],
      "stateMutability": "payable",
      "type": "function",
      "payable": true
    },
    {
      "inputs": [],
      "name": "getBread",
      "outputs": [
        {
          "internalType": "uint256",
          "name": "",
          "type": "uint256"
        }
      ],
      "stateMutability": "view",
      "type": "function",
      "constant": true
    }
  ],
  "bytecode": "0x608060405234801561001057600080fd5b506103bb806100206000396000f3fe60806040526004361061003f5760003560e01c80632fad08dc146100445780636cbed6091461006f578063e081aaa914610079578063e22d37fe146100b6575b600080fd5b34801561005057600080fd5b506100596100cd565b6040516100669190610243565b60405180910390f35b610077610113565b005b34801561008557600080fd5b506100a0600480360381019061009b91906102c1565b6101ba565b6040516100ad9190610243565b60405180910390f35b3480156100c257600080fd5b506100cb6101d2565b005b60008060003373ffffffffffffffffffffffffffffffffffffffff1673ffffffffffffffffffffffffffffffffffffffff16815260200190815260200160002054905090565b60016000803373ffffffffffffffffffffffffffffffffffffffff1673ffffffffffffffffffffffffffffffffffffffff1681526020019081526020016000206000828254610162919061031d565b925050819055503373ffffffffffffffffffffffffffffffffffffffff166108fc670de0b6b3a76400009081150290604051600060405180830381858888f193505050501580156101b7573d6000803e3d6000fd5b50565b60006020528060005260406000206000915090505481565b60016000803373ffffffffffffffffffffffffffffffffffffffff1673ffffffffffffffffffffffffffffffffffffffff16815260200190815260200160002060008282546102219190610351565b92505081905550565b6000819050919050565b61023d8161022a565b82525050565b60006020820190506102586000830184610234565b92915050565b600080fd5b600073ffffffffffffffffffffffffffffffffffffffff82169050919050565b600061028e82610263565b9050919050565b61029e81610283565b81146102a957600080fd5b50565b6000813590506102bb81610295565b92915050565b6000602082840312156102d7576102d661025e565b5b60006102e5848285016102ac565b91505092915050565b7f4e487b7100000000000000000000000000000000000000000000000000000000600052601160045260246000fd5b60006103288261022a565b91506103338361022a565b925082820390508181111561034b5761034a6102ee565b5b92915050565b600061035c8261022a565b91506103678361022a565b925082820190508082111561037f5761037e6102ee565b5b9291505056fea2646970667358221220f362368b547606126511cc06ff417ce2caa809a616c59330897722c5bca2963b64736f6c63430008130033",
  "immutableReferences": {},
  "source": "// SPDX-License-Identifier: MIT\r\npragma solidity ^0.8.19;\r\n\r\ncontract BreadShop {\r\n  mapping(address => uint) public breads;\r\n\r\n  function buyBread() public {\r\n    breads[msg.sender] += 1;\r\n  }\r\n\r\n  function sellBread() public payable {\r\n    breads[msg.sender] -= 1;\r\n    payable(msg.sender).transfer(10 ** 18);\r\n  }\r\n\r\n  function getBread() public view returns (uint) {\r\n    return breads[msg.sender];\r\n  }\r\n}\r\n",
  "sourcePath": "C:\\Users\\kga-00\\Documents\\GitHub\\blockchain7\\New.No.091\\back\\contracts\\BreadShop.sol",
  "compiler": {
    "name": "solc",
    "version": "0.8.19+commit.7dd6d404.Emscripten.clang"
  },
  "schemaVersion": "3.4.13",
  "updatedAt": "2023-03-08T00:26:47.826Z",
  "networkType": "ethereum",
  "devdoc": {
    "kind": "dev",
    "methods": {},
    "version": 1
  },
  "userdoc": {
    "kind": "user",
    "methods": {},
    "version": 1
  }
}