{
  "contractName": "BreadShop",
  "abi": [
    {
      "inputs": [
        {
          "internalType": "address",
          "name": "",
          "type": "address"
        }
      ],
      "name": "breads",
      "outputs": [
        {
          "internalType": "uint256",
          "name": "",
          "type": "uint256"
        }
      ],
      "stateMutability": "view",
      "type": "function",
      "constant": true
    },
    {
      "inputs": [],
      "name": "buyBread",
      "outputs": [],
      "stateMutability": "payable",
      "type": "function",
      "payable": true
    },
    {
      "inputs": [],
      "name": "sellBread",
      "outputs": [],
      "stateMutability": "payable",
      "type": "function",
      "payable": true
    },
    {
      "inputs": [],
      "name": "getBread",
      "outputs": [
        {
          "internalType": "uint256",
          "name": "",
          "type": "uint256"
        }
      ],
      "stateMutability": "view",
      "type": "function",
      "constant": true
    },
    {
      "inputs": [],
      "name": "getSender",
      "outputs": [
        {
          "internalType": "address",
          "name": "",
          "type": "address"
        }
      ],
      "stateMutability": "view",
      "type": "function",
      "constant": true
    }
  ],
  "bytecode": "0x608060405234801561001057600080fd5b5061042b806100206000396000f3fe60806040526004361061004a5760003560e01c80632fad08dc1461004f5780635e01eb5a1461007a5780636cbed609146100a5578063e081aaa9146100af578063e22d37fe146100ec575b600080fd5b34801561005b57600080fd5b506100646100f6565b6040516100719190610289565b60405180910390f35b34801561008657600080fd5b5061008f61013c565b60405161009c91906102e5565b60405180910390f35b6100ad610144565b005b3480156100bb57600080fd5b506100d660048036038101906100d19190610331565b6101eb565b6040516100e39190610289565b60405180910390f35b6100f4610203565b005b60008060003373ffffffffffffffffffffffffffffffffffffffff1673ffffffffffffffffffffffffffffffffffffffff16815260200190815260200160002054905090565b600033905090565b60016000803373ffffffffffffffffffffffffffffffffffffffff1673ffffffffffffffffffffffffffffffffffffffff1681526020019081526020016000206000828254610193919061038d565b925050819055503373ffffffffffffffffffffffffffffffffffffffff166108fc670de0b6b3a76400009081150290604051600060405180830381858888f193505050501580156101e8573d6000803e3d6000fd5b50565b60006020528060005260406000206000915090505481565b670de0b6b3a764000034101561021857600080fd5b60016000803373ffffffffffffffffffffffffffffffffffffffff1673ffffffffffffffffffffffffffffffffffffffff168152602001908152602001600020600082825461026791906103c1565b92505081905550565b6000819050919050565b61028381610270565b82525050565b600060208201905061029e600083018461027a565b92915050565b600073ffffffffffffffffffffffffffffffffffffffff82169050919050565b60006102cf826102a4565b9050919050565b6102df816102c4565b82525050565b60006020820190506102fa60008301846102d6565b92915050565b600080fd5b61030e816102c4565b811461031957600080fd5b50565b60008135905061032b81610305565b92915050565b60006020828403121561034757610346610300565b5b60006103558482850161031c565b91505092915050565b7f4e487b7100000000000000000000000000000000000000000000000000000000600052601160045260246000fd5b600061039882610270565b91506103a383610270565b92508282039050818111156103bb576103ba61035e565b5b92915050565b60006103cc82610270565b91506103d783610270565b92508282019050808211156103ef576103ee61035e565b5b9291505056fea26469706673582212205c62d1c97e8b80e5f559191cb5a973afe517d171ae59900221f38a682a5f452064736f6c63430008130033",
  "immutableReferences": {},
  "source": "// SPDX-License-Identifier: MIT\r\npragma solidity ^0.8.19;\r\n\r\ncontract BreadShop {\r\n  mapping(address => uint) public breads;\r\n\r\n  function buyBread() public payable {\r\n    require(msg.value >= 10 ** 18);\r\n    breads[msg.sender] += 1;\r\n  }\r\n\r\n  function sellBread() public payable {\r\n    breads[msg.sender] -= 1;\r\n    payable(msg.sender).transfer(10 ** 18);\r\n  }\r\n\r\n  function getBread() public view returns (uint) {\r\n    return breads[msg.sender];\r\n  }\r\n\r\n  function getSender() public view returns (address) {\r\n    return msg.sender;\r\n  }\r\n}\r\n",
  "sourcePath": "C:\\Users\\kga-00\\Documents\\GitHub\\blockchain7\\New.No.091\\back\\contracts\\BreadShop.sol",
  "compiler": {
    "name": "solc",
    "version": "0.8.19+commit.7dd6d404.Emscripten.clang"
  },
  "schemaVersion": "3.4.13",
  "updatedAt": "2023-03-08T02:03:24.962Z",
  "networkType": "ethereum",
  "devdoc": {
    "kind": "dev",
    "methods": {},
    "version": 1
  },
  "userdoc": {
    "kind": "user",
    "methods": {},
    "version": 1
  }
}