{
  "contractName": "JJJToken",
  "abi": [
    {
      "inputs": [
        {
          "internalType": "string",
          "name": "_name",
          "type": "string"
        },
        {
          "internalType": "string",
          "name": "_symbol",
          "type": "string"
        },
        {
          "internalType": "uint256",
          "name": "_amount",
          "type": "uint256"
        }
      ],
      "stateMutability": "nonpayable",
      "type": "constructor"
    },
    {
      "anonymous": false,
      "inputs": [
        {
          "indexed": true,
          "internalType": "address",
          "name": "owner",
          "type": "address"
        },
        {
          "indexed": true,
          "internalType": "address",
          "name": "spender",
          "type": "address"
        },
        {
          "indexed": false,
          "internalType": "uint256",
          "name": "amount",
          "type": "uint256"
        }
      ],
      "name": "Approval",
      "type": "event"
    },
    {
      "anonymous": false,
      "inputs": [
        {
          "indexed": true,
          "internalType": "address",
          "name": "from",
          "type": "address"
        },
        {
          "indexed": true,
          "internalType": "address",
          "name": "to",
          "type": "address"
        },
        {
          "indexed": false,
          "internalType": "uint256",
          "name": "amount",
          "type": "uint256"
        }
      ],
      "name": "Transfer",
      "type": "event"
    },
    {
      "inputs": [
        {
          "internalType": "address",
          "name": "",
          "type": "address"
        },
        {
          "internalType": "address",
          "name": "",
          "type": "address"
        }
      ],
      "name": "allowance",
      "outputs": [
        {
          "internalType": "uint256",
          "name": "",
          "type": "uint256"
        }
      ],
      "stateMutability": "view",
      "type": "function"
    },
    {
      "inputs": [
        {
          "internalType": "address",
          "name": "spender",
          "type": "address"
        },
        {
          "internalType": "uint256",
          "name": "amount",
          "type": "uint256"
        }
      ],
      "name": "approve",
      "outputs": [
        {
          "internalType": "bool",
          "name": "",
          "type": "bool"
        }
      ],
      "stateMutability": "nonpayable",
      "type": "function"
    },
    {
      "inputs": [
        {
          "internalType": "address",
          "name": "account",
          "type": "address"
        }
      ],
      "name": "balanceOf",
      "outputs": [
        {
          "internalType": "uint256",
          "name": "",
          "type": "uint256"
        }
      ],
      "stateMutability": "view",
      "type": "function"
    },
    {
      "inputs": [
        {
          "internalType": "address",
          "name": "",
          "type": "address"
        }
      ],
      "name": "balances",
      "outputs": [
        {
          "internalType": "uint256",
          "name": "",
          "type": "uint256"
        }
      ],
      "stateMutability": "view",
      "type": "function"
    },
    {
      "inputs": [
        {
          "internalType": "uint256",
          "name": "amount",
          "type": "uint256"
        }
      ],
      "name": "burn",
      "outputs": [],
      "stateMutability": "nonpayable",
      "type": "function"
    },
    {
      "inputs": [],
      "name": "decimals",
      "outputs": [
        {
          "internalType": "uint8",
          "name": "",
          "type": "uint8"
        }
      ],
      "stateMutability": "view",
      "type": "function"
    },
    {
      "inputs": [],
      "name": "ethCanBuy",
      "outputs": [
        {
          "internalType": "uint256",
          "name": "",
          "type": "uint256"
        }
      ],
      "stateMutability": "view",
      "type": "function"
    },
    {
      "inputs": [],
      "name": "name",
      "outputs": [
        {
          "internalType": "string",
          "name": "",
          "type": "string"
        }
      ],
      "stateMutability": "view",
      "type": "function"
    },
    {
      "inputs": [],
      "name": "owner",
      "outputs": [
        {
          "internalType": "address",
          "name": "",
          "type": "address"
        }
      ],
      "stateMutability": "view",
      "type": "function"
    },
    {
      "inputs": [],
      "name": "symbol",
      "outputs": [
        {
          "internalType": "string",
          "name": "",
          "type": "string"
        }
      ],
      "stateMutability": "view",
      "type": "function"
    },
    {
      "inputs": [],
      "name": "totalSupply",
      "outputs": [
        {
          "internalType": "uint256",
          "name": "",
          "type": "uint256"
        }
      ],
      "stateMutability": "view",
      "type": "function"
    },
    {
      "inputs": [
        {
          "internalType": "address",
          "name": "recipient",
          "type": "address"
        },
        {
          "internalType": "uint256",
          "name": "amount",
          "type": "uint256"
        }
      ],
      "name": "transfer",
      "outputs": [
        {
          "internalType": "bool",
          "name": "",
          "type": "bool"
        }
      ],
      "stateMutability": "nonpayable",
      "type": "function"
    },
    {
      "inputs": [
        {
          "internalType": "address",
          "name": "sender",
          "type": "address"
        },
        {
          "internalType": "address",
          "name": "recipient",
          "type": "address"
        },
        {
          "internalType": "uint256",
          "name": "amount",
          "type": "uint256"
        }
      ],
      "name": "transferFrom",
      "outputs": [
        {
          "internalType": "bool",
          "name": "",
          "type": "bool"
        }
      ],
      "stateMutability": "nonpayable",
      "type": "function"
    },
    {
      "stateMutability": "payable",
      "type": "receive"
    }
  ],
  "bytecode": "0x60806040526012600260006101000a81548160ff021916908360ff16021790555060646007553480156200003257600080fd5b5060405162001c4838038062001c488339818101604052810190620000589190620003ad565b33600660006101000a81548173ffffffffffffffffffffffffffffffffffffffff021916908373ffffffffffffffffffffffffffffffffffffffff1602179055508260009081620000aa919062000688565b508160019081620000bc919062000688565b50620000f8600260009054906101000a900460ff16600a620000df9190620008ff565b82620000ec919062000950565b6200010160201b60201c565b50505062000a04565b80600460003373ffffffffffffffffffffffffffffffffffffffff1673ffffffffffffffffffffffffffffffffffffffff16815260200190815260200160002060008282546200015291906200099b565b9250508190555080600360008282546200016d91906200099b565b925050819055503373ffffffffffffffffffffffffffffffffffffffff16600073ffffffffffffffffffffffffffffffffffffffff167fddf252ad1be2c89b69c2b068fc378daa952ba7f163c4a11628f55a4df523b3ef83604051620001d49190620009e7565b60405180910390a350565b6000604051905090565b600080fd5b600080fd5b600080fd5b600080fd5b6000601f19601f8301169050919050565b7f4e487b7100000000000000000000000000000000000000000000000000000000600052604160045260246000fd5b6200024882620001fd565b810181811067ffffffffffffffff821117156200026a57620002696200020e565b5b80604052505050565b60006200027f620001df565b90506200028d82826200023d565b919050565b600067ffffffffffffffff821115620002b057620002af6200020e565b5b620002bb82620001fd565b9050602081019050919050565b60005b83811015620002e8578082015181840152602081019050620002cb565b60008484015250505050565b60006200030b620003058462000292565b62000273565b9050828152602081018484840111156200032a5762000329620001f8565b5b62000337848285620002c8565b509392505050565b600082601f830112620003575762000356620001f3565b5b815162000369848260208601620002f4565b91505092915050565b6000819050919050565b620003878162000372565b81146200039357600080fd5b50565b600081519050620003a7816200037c565b92915050565b600080600060608486031215620003c957620003c8620001e9565b5b600084015167ffffffffffffffff811115620003ea57620003e9620001ee565b5b620003f8868287016200033f565b935050602084015167ffffffffffffffff8111156200041c576200041b620001ee565b5b6200042a868287016200033f565b92505060406200043d8682870162000396565b9150509250925092565b600081519050919050565b7f4e487b7100000000000000000000000000000000000000000000000000000000600052602260045260246000fd5b600060028204905060018216806200049a57607f821691505b602082108103620004b057620004af62000452565b5b50919050565b60008190508160005260206000209050919050565b60006020601f8301049050919050565b600082821b905092915050565b6000600883026200051a7fffffffffffffffffffffffffffffffffffffffffffffffffffffffffffffffff82620004db565b620005268683620004db565b95508019841693508086168417925050509392505050565b6000819050919050565b600062000569620005636200055d8462000372565b6200053e565b62000372565b9050919050565b6000819050919050565b620005858362000548565b6200059d620005948262000570565b848454620004e8565b825550505050565b600090565b620005b4620005a5565b620005c18184846200057a565b505050565b5b81811015620005e957620005dd600082620005aa565b600181019050620005c7565b5050565b601f82111562000638576200060281620004b6565b6200060d84620004cb565b810160208510156200061d578190505b620006356200062c85620004cb565b830182620005c6565b50505b505050565b600082821c905092915050565b60006200065d600019846008026200063d565b1980831691505092915050565b60006200067883836200064a565b9150826002028217905092915050565b620006938262000447565b67ffffffffffffffff811115620006af57620006ae6200020e565b5b620006bb825462000481565b620006c8828285620005ed565b600060209050601f831160018114620007005760008415620006eb578287015190505b620006f785826200066a565b86555062000767565b601f1984166200071086620004b6565b60005b828110156200073a5784890151825560018201915060208501945060208101905062000713565b868310156200075a578489015162000756601f8916826200064a565b8355505b6001600288020188555050505b505050505050565b7f4e487b7100000000000000000000000000000000000000000000000000000000600052601160045260246000fd5b60008160011c9050919050565b6000808291508390505b6001851115620007fd57808604811115620007d557620007d46200076f565b5b6001851615620007e55780820291505b8081029050620007f5856200079e565b9450620007b5565b94509492505050565b600082620008185760019050620008eb565b81620008285760009050620008eb565b81600181146200084157600281146200084c5762000882565b6001915050620008eb565b60ff8411156200086157620008606200076f565b5b8360020a9150848211156200087b576200087a6200076f565b5b50620008eb565b5060208310610133831016604e8410600b8410161715620008bc5782820a905083811115620008b657620008b56200076f565b5b620008eb565b620008cb8484846001620007ab565b92509050818404811115620008e557620008e46200076f565b5b81810290505b9392505050565b600060ff82169050919050565b60006200090c8262000372565b91506200091983620008f2565b9250620009487fffffffffffffffffffffffffffffffffffffffffffffffffffffffffffffffff848462000806565b905092915050565b60006200095d8262000372565b91506200096a8362000372565b92508282026200097a8162000372565b915082820484148315176200099457620009936200076f565b5b5092915050565b6000620009a88262000372565b9150620009b58362000372565b9250828201905080821115620009d057620009cf6200076f565b5b92915050565b620009e18162000372565b82525050565b6000602082019050620009fe6000830184620009d6565b92915050565b6112348062000a146000396000f3fe6080604052600436106100c65760003560e01c806331b0a2c61161007f5780638da5cb5b116100595780638da5cb5b146104dc57806395d89b4114610507578063a9059cbb14610532578063dd62ed3e1461056f5761030e565b806331b0a2c61461044b57806342966c681461047657806370a082311461049f5761030e565b806306fdde0314610313578063095ea7b31461033e57806318160ddd1461037b57806323b872dd146103a657806327e235e3146103e3578063313ce567146104205761030e565b3661030e57600034036100d857600080fd5b6000600754346100e89190610dc5565b90508060046000600660009054906101000a900473ffffffffffffffffffffffffffffffffffffffff1673ffffffffffffffffffffffffffffffffffffffff1673ffffffffffffffffffffffffffffffffffffffff16815260200190815260200160002054101561015857600080fd5b8060046000600660009054906101000a900473ffffffffffffffffffffffffffffffffffffffff1673ffffffffffffffffffffffffffffffffffffffff1673ffffffffffffffffffffffffffffffffffffffff16815260200190815260200160002060008282546101c99190610e07565b9250508190555080600460003373ffffffffffffffffffffffffffffffffffffffff1673ffffffffffffffffffffffffffffffffffffffff168152602001908152602001600020600082825461021f9190610e3b565b92505081905550600660009054906101000a900473ffffffffffffffffffffffffffffffffffffffff1673ffffffffffffffffffffffffffffffffffffffff163373ffffffffffffffffffffffffffffffffffffffff160361028557610284816105ac565b5b3373ffffffffffffffffffffffffffffffffffffffff16600660009054906101000a900473ffffffffffffffffffffffffffffffffffffffff1673ffffffffffffffffffffffffffffffffffffffff167fddf252ad1be2c89b69c2b068fc378daa952ba7f163c4a11628f55a4df523b3ef836040516103049190610e7e565b60405180910390a3005b600080fd5b34801561031f57600080fd5b50610328610684565b6040516103359190610f29565b60405180910390f35b34801561034a57600080fd5b5061036560048036038101906103609190610fda565b610712565b6040516103729190611035565b60405180910390f35b34801561038757600080fd5b50610390610804565b60405161039d9190610e7e565b60405180910390f35b3480156103b257600080fd5b506103cd60048036038101906103c89190611050565b61080a565b6040516103da9190611035565b60405180910390f35b3480156103ef57600080fd5b5061040a600480360381019061040591906110a3565b610a44565b6040516104179190610e7e565b60405180910390f35b34801561042c57600080fd5b50610435610a5c565b60405161044291906110ec565b60405180910390f35b34801561045757600080fd5b50610460610a6f565b60405161046d9190610e7e565b60405180910390f35b34801561048257600080fd5b5061049d60048036038101906104989190611107565b610a75565b005b3480156104ab57600080fd5b506104c660048036038101906104c191906110a3565b610b4d565b6040516104d39190610e7e565b60405180910390f35b3480156104e857600080fd5b506104f1610b96565b6040516104fe9190611143565b60405180910390f35b34801561051357600080fd5b5061051c610bbc565b6040516105299190610f29565b60405180910390f35b34801561053e57600080fd5b5061055960048036038101906105549190610fda565b610c4a565b6040516105669190611035565b60405180910390f35b34801561057b57600080fd5b506105966004803603810190610591919061115e565b610d67565b6040516105a39190610e7e565b60405180910390f35b80600460003373ffffffffffffffffffffffffffffffffffffffff1673ffffffffffffffffffffffffffffffffffffffff16815260200190815260200160002060008282546105fb9190610e3b565b9250508190555080600360008282546106149190610e3b565b925050819055503373ffffffffffffffffffffffffffffffffffffffff16600073ffffffffffffffffffffffffffffffffffffffff167fddf252ad1be2c89b69c2b068fc378daa952ba7f163c4a11628f55a4df523b3ef836040516106799190610e7e565b60405180910390a350565b60008054610691906111cd565b80601f01602080910402602001604051908101604052809291908181526020018280546106bd906111cd565b801561070a5780601f106106df5761010080835404028352916020019161070a565b820191906000526020600020905b8154815290600101906020018083116106ed57829003601f168201915b505050505081565b600081600560003373ffffffffffffffffffffffffffffffffffffffff1673ffffffffffffffffffffffffffffffffffffffff16815260200190815260200160002060008573ffffffffffffffffffffffffffffffffffffffff1673ffffffffffffffffffffffffffffffffffffffff168152602001908152602001600020819055508273ffffffffffffffffffffffffffffffffffffffff163373ffffffffffffffffffffffffffffffffffffffff167f8c5be1e5ebec7d5bd14f71427d1e84f3dd0314c0f7b2291e5b200ac8c7c3b925846040516107f29190610e7e565b60405180910390a36001905092915050565b60035481565b600081600560008673ffffffffffffffffffffffffffffffffffffffff1673ffffffffffffffffffffffffffffffffffffffff16815260200190815260200160002060003373ffffffffffffffffffffffffffffffffffffffff1673ffffffffffffffffffffffffffffffffffffffff16815260200190815260200160002054101561089557600080fd5b81600560008673ffffffffffffffffffffffffffffffffffffffff1673ffffffffffffffffffffffffffffffffffffffff16815260200190815260200160002060003373ffffffffffffffffffffffffffffffffffffffff1673ffffffffffffffffffffffffffffffffffffffff16815260200190815260200160002060008282546109219190610e07565b9250508190555081600460008673ffffffffffffffffffffffffffffffffffffffff1673ffffffffffffffffffffffffffffffffffffffff16815260200190815260200160002060008282546109779190610e07565b9250508190555081600460008573ffffffffffffffffffffffffffffffffffffffff1673ffffffffffffffffffffffffffffffffffffffff16815260200190815260200160002060008282546109cd9190610e3b565b925050819055508273ffffffffffffffffffffffffffffffffffffffff168473ffffffffffffffffffffffffffffffffffffffff167fddf252ad1be2c89b69c2b068fc378daa952ba7f163c4a11628f55a4df523b3ef84604051610a319190610e7e565b60405180910390a3600190509392505050565b60046020528060005260406000206000915090505481565b600260009054906101000a900460ff1681565b60075481565b80600460003373ffffffffffffffffffffffffffffffffffffffff1673ffffffffffffffffffffffffffffffffffffffff1681526020019081526020016000206000828254610ac49190610e07565b925050819055508060036000828254610add9190610e07565b92505081905550600073ffffffffffffffffffffffffffffffffffffffff163373ffffffffffffffffffffffffffffffffffffffff167fddf252ad1be2c89b69c2b068fc378daa952ba7f163c4a11628f55a4df523b3ef83604051610b429190610e7e565b60405180910390a350565b6000600460008373ffffffffffffffffffffffffffffffffffffffff1673ffffffffffffffffffffffffffffffffffffffff168152602001908152602001600020549050919050565b600660009054906101000a900473ffffffffffffffffffffffffffffffffffffffff1681565b60018054610bc9906111cd565b80601f0160208091040260200160405190810160405280929190818152602001828054610bf5906111cd565b8015610c425780601f10610c1757610100808354040283529160200191610c42565b820191906000526020600020905b815481529060010190602001808311610c2557829003601f168201915b505050505081565b600081600460003373ffffffffffffffffffffffffffffffffffffffff1673ffffffffffffffffffffffffffffffffffffffff1681526020019081526020016000206000828254610c9b9190610e07565b9250508190555081600460008573ffffffffffffffffffffffffffffffffffffffff1673ffffffffffffffffffffffffffffffffffffffff1681526020019081526020016000206000828254610cf19190610e3b565b925050819055508273ffffffffffffffffffffffffffffffffffffffff163373ffffffffffffffffffffffffffffffffffffffff167fddf252ad1be2c89b69c2b068fc378daa952ba7f163c4a11628f55a4df523b3ef84604051610d559190610e7e565b60405180910390a36001905092915050565b6005602052816000526040600020602052806000526040600020600091509150505481565b6000819050919050565b7f4e487b7100000000000000000000000000000000000000000000000000000000600052601160045260246000fd5b6000610dd082610d8c565b9150610ddb83610d8c565b9250828202610de981610d8c565b91508282048414831517610e0057610dff610d96565b5b5092915050565b6000610e1282610d8c565b9150610e1d83610d8c565b9250828203905081811115610e3557610e34610d96565b5b92915050565b6000610e4682610d8c565b9150610e5183610d8c565b9250828201905080821115610e6957610e68610d96565b5b92915050565b610e7881610d8c565b82525050565b6000602082019050610e936000830184610e6f565b92915050565b600081519050919050565b600082825260208201905092915050565b60005b83811015610ed3578082015181840152602081019050610eb8565b60008484015250505050565b6000601f19601f8301169050919050565b6000610efb82610e99565b610f058185610ea4565b9350610f15818560208601610eb5565b610f1e81610edf565b840191505092915050565b60006020820190508181036000830152610f438184610ef0565b905092915050565b600080fd5b600073ffffffffffffffffffffffffffffffffffffffff82169050919050565b6000610f7b82610f50565b9050919050565b610f8b81610f70565b8114610f9657600080fd5b50565b600081359050610fa881610f82565b92915050565b610fb781610d8c565b8114610fc257600080fd5b50565b600081359050610fd481610fae565b92915050565b60008060408385031215610ff157610ff0610f4b565b5b6000610fff85828601610f99565b925050602061101085828601610fc5565b9150509250929050565b60008115159050919050565b61102f8161101a565b82525050565b600060208201905061104a6000830184611026565b92915050565b60008060006060848603121561106957611068610f4b565b5b600061107786828701610f99565b935050602061108886828701610f99565b925050604061109986828701610fc5565b9150509250925092565b6000602082840312156110b9576110b8610f4b565b5b60006110c784828501610f99565b91505092915050565b600060ff82169050919050565b6110e6816110d0565b82525050565b600060208201905061110160008301846110dd565b92915050565b60006020828403121561111d5761111c610f4b565b5b600061112b84828501610fc5565b91505092915050565b61113d81610f70565b82525050565b60006020820190506111586000830184611134565b92915050565b6000806040838503121561117557611174610f4b565b5b600061118385828601610f99565b925050602061119485828601610f99565b9150509250929050565b7f4e487b7100000000000000000000000000000000000000000000000000000000600052602260045260246000fd5b600060028204905060018216806111e557607f821691505b6020821081036111f8576111f761119e565b5b5091905056fea26469706673582212208a3864b501e1e28e4146e9de1352b720f0b56e678610bd519aa90404210c519f64736f6c63430008130033",
  "immutableReferences": {},
  "source": "// SPDX-License-Identifier: MIT\r\npragma solidity ^0.8.19;\r\n\r\nimport \"./ERC20.sol\";\r\n\r\ncontract JJJToken is ERC20 {\r\n  address public owner;\r\n  uint256 public ethCanBuy = 100;\r\n\r\n  constructor(string memory _name, string memory _symbol, uint256 _amount) {\r\n    owner = msg.sender;\r\n    name = _name;\r\n    symbol = _symbol;\r\n\r\n    mint(_amount * 10 ** decimals);\r\n  }\r\n\r\n  receive() external payable {\r\n    require(msg.value != 0);\r\n    uint amount = msg.value * ethCanBuy;\r\n\r\n    require(balances[owner] >= amount);\r\n    balances[owner] -= amount;\r\n    balances[msg.sender] += amount;\r\n\r\n    if (msg.sender == owner) {\r\n      mint(amount);\r\n    }\r\n\r\n    emit Transfer(owner, msg.sender, amount);\r\n  }\r\n}\r\n",
  "sourcePath": "C:\\Users\\kga-00\\Documents\\GitHub\\blockchain7\\New.No.092\\contracts\\JJJToken.sol",
  "compiler": {
    "name": "solc",
    "version": "0.8.19+commit.7dd6d404.Emscripten.clang"
  },
  "schemaVersion": "3.4.13",
  "updatedAt": "2023-03-09T04:55:39.460Z",
  "devdoc": {
    "kind": "dev",
    "methods": {},
    "version": 1
  },
  "userdoc": {
    "kind": "user",
    "methods": {},
    "version": 1
  }
}