{
  "contractName": "Counter",
  "abi": [
    {
      "inputs": [],
      "stateMutability": "nonpayable",
      "type": "constructor"
    },
    {
      "anonymous": false,
      "inputs": [
        {
          "indexed": false,
          "internalType": "int256",
          "name": "count",
          "type": "int256"
        }
      ],
      "name": "Count",
      "type": "event"
    },
    {
      "inputs": [],
      "name": "getCount",
      "outputs": [
        {
          "internalType": "int256",
          "name": "",
          "type": "int256"
        }
      ],
      "stateMutability": "view",
      "type": "function",
      "constant": true
    },
    {
      "inputs": [],
      "name": "increment",
      "outputs": [],
      "stateMutability": "nonpayable",
      "type": "function"
    },
    {
      "inputs": [],
      "name": "decrement",
      "outputs": [],
      "stateMutability": "nonpayable",
      "type": "function"
    }
  ],
  "bytecode": "0x608060405234801561001057600080fd5b5060008081905550610249806100276000396000f3fe608060405234801561001057600080fd5b50600436106100415760003560e01c80632baeceb714610046578063a87d942c14610050578063d09de08a1461006e575b600080fd5b61004e610078565b005b6100586100cc565b6040516100659190610142565b60405180910390f35b6100766100d5565b005b600160008082825461008a919061018c565b925050819055507f47a90661b520aaf860e17d861200923904ff3dc45e8640c690c905b71719464e6000546040516100c29190610142565b60405180910390a1565b60008054905090565b60016000808282546100e791906101cf565b925050819055507f47a90661b520aaf860e17d861200923904ff3dc45e8640c690c905b71719464e60005460405161011f9190610142565b60405180910390a1565b6000819050919050565b61013c81610129565b82525050565b60006020820190506101576000830184610133565b92915050565b7f4e487b7100000000000000000000000000000000000000000000000000000000600052601160045260246000fd5b600061019782610129565b91506101a283610129565b92508282039050818112600084121682821360008512151617156101c9576101c861015d565b5b92915050565b60006101da82610129565b91506101e583610129565b92508282019050828112156000831216838212600084121516171561020d5761020c61015d565b5b9291505056fea2646970667358221220bbce93a55be87def533d577aaa8551ade94b1cbb05d82ff01ddae1a075330f1d64736f6c63430008130033",
  "immutableReferences": {},
  "source": "// SPDX-License-Identifier: MIT\r\npragma solidity ^0.8.18;\r\n\r\ncontract Counter {\r\n  int256 private count;\r\n\r\n  event Count(int256 count);\r\n\r\n  constructor() {\r\n    count = 0;\r\n  }\r\n\r\n  function getCount() public view returns (int256) {\r\n    return count;\r\n  }\r\n\r\n  function increment() public {\r\n    count += 1;\r\n    emit Count(count);\r\n  }\r\n\r\n  function decrement() public {\r\n    count -= 1;\r\n    emit Count(count);\r\n  }\r\n}\r\n",
  "sourcePath": "C:\\Users\\kga-00\\Documents\\GitHub\\blockchain7\\New.No.088\\back\\contracts\\Counter.sol",
  "compiler": {
    "name": "solc",
    "version": "0.8.19+commit.7dd6d404.Emscripten.clang"
  },
  "schemaVersion": "3.4.13",
  "updatedAt": "2023-03-03T01:09:42.104Z",
  "networkType": "ethereum",
  "devdoc": {
    "kind": "dev",
    "methods": {},
    "version": 1
  },
  "userdoc": {
    "kind": "user",
    "methods": {},
    "version": 1
  }
}